:1000000045C0000060C000005EC000005CC0000091
:100010005AC0000058C0000056C0000054C0000084
:1000200052C0000050C000004EC000004CC0000094
:100030004AC0000048C0000046C0000044C00000A4
:1000400042C0000040C000003EC000003CC00000B4
:100050003AC0000038C0000036C0000034C00000C4
:1000600032C0000030C000002EC000002CC00000D4
:100070002AC0000028C0000026C0000024C00000E4
:1000800022C0000020C000001EC0000011241FBEBE
:10009000CFEFD0E4DEBFCDBF11E0A0E0B1E0E6EDF0
:1000A000F1E000E00BBF02C007900D92AE30B10747
:1000B000D9F721E0AEE0B1E001C01D92AE30B20749
:1000C000E1F775D086C09CCF27E030E0E82FF0E064
:1000D00095B1907F986095B945B1BF01022E02C0DD
:1000E000759567950A94E2F7962F9170942B95B9C0
:1000F0002A9A2150310960F7299A85B1807F85B904
:1001000008952C98E1DF2D9A00002D988FE99FE04B
:100110000197F1F700C00000089581E0F2CF089543
:100120002FEF80E792E0215080409040E1F700C03F
:10013000000088E3E6DF86E0E4DF8EE0E2DF81E0D6
:10014000E0DF8FE19EE40197F1F700C00000089521
:100150002C9ABADF2D9A00002D988FEC97E001972A
:10016000F1F700C000000895813118F48158C9CF1B
:1001700008958155C6CF08950F931F93CF93DF93B2
:10018000182FEB01413009F4C8DF8881882351F032
:1001900001E0010F812FE8DF8991DADF102F8881DC
:1001A0008111F6CFDF91CF911F910F9108958FEFBD
:1001B00081B912B884B915B890EF97B99FE098B992
:1001C0008AB91BB8ADDF40E060E071E083E0D4DFC6
:0601D000FACFF894FFCF06
:0E01D60048656C6C6F20576F726C64210000DE
:00000001FF
